{
  "contractName": "CreditCardLimit",
  "abi": [
    {
      "inputs": [
        {
          "internalType": "uint256",
          "name": "cost",
          "type": "uint256"
        }
      ],
      "name": "set_travelCost",
      "outputs": [],
      "stateMutability": "nonpayable",
      "type": "function"
    },
    {
      "inputs": [
        {
          "internalType": "uint256",
          "name": "cost",
          "type": "uint256"
        }
      ],
      "name": "set_foodCost",
      "outputs": [],
      "stateMutability": "nonpayable",
      "type": "function"
    },
    {
      "inputs": [
        {
          "internalType": "uint256",
          "name": "cost",
          "type": "uint256"
        }
      ],
      "name": "set_stayCost",
      "outputs": [],
      "stateMutability": "nonpayable",
      "type": "function"
    },
    {
      "inputs": [],
      "name": "get_remBalance",
      "outputs": [
        {
          "internalType": "uint256",
          "name": "",
          "type": "uint256"
        }
      ],
      "stateMutability": "view",
      "type": "function"
    }
  ],
  "bytecode": "0x608060405261271060005534801561001657600080fd5b50610271806100266000396000f3fe608060405234801561001057600080fd5b506004361061004c5760003560e01c806338024654146100515780633d935b011461006d57806388aff8f114610089578063be28f034146100a5575b600080fd5b61006b6004803603810190610066919061014d565b6100c3565b005b6100876004803603810190610082919061014d565b6100cd565b005b6100a3600480360381019061009e919061014d565b6100d7565b005b6100ad6100e1565b6040516100ba9190610189565b60405180910390f35b8060018190555050565b8060028190555050565b8060038190555050565b60006003546002546001546100f691906101d3565b61010091906101d3565b60005461010d9190610207565b905090565b600080fd5b6000819050919050565b61012a81610117565b811461013557600080fd5b50565b60008135905061014781610121565b92915050565b60006020828403121561016357610162610112565b5b600061017184828501610138565b91505092915050565b61018381610117565b82525050565b600060208201905061019e600083018461017a565b92915050565b7f4e487b7100000000000000000000000000000000000000000000000000000000600052601160045260246000fd5b60006101de82610117565b91506101e983610117565b9250828201905080821115610201576102006101a4565b5b92915050565b600061021282610117565b915061021d83610117565b9250828203905081811115610235576102346101a4565b5b9291505056fea26469706673582212204665395f42bbbecf2e470430e1df3bdd72640bbf93dedb29bf799fd1093ede0364736f6c63430008110033",
  "immutableReferences": {},
  "source": "pragma solidity >= 0.7.0;\r\n\r\ncontract CreditCardLimit {\r\n    uint cardLimit = 10000;\r\n    uint travelCost;\r\n    uint foodCost;\r\n    uint stayCost;\r\n\r\n    function set_travelCost (uint cost) public {\r\n        travelCost = cost;\r\n    }\r\n\r\n    function set_foodCost (uint cost) public {\r\n        foodCost = cost;\r\n    }\r\n    \r\n    function set_stayCost (uint cost) public {\r\n        stayCost = cost;\r\n    }\r\n\r\n    function get_remBalance() public view returns (uint) {\r\n        return cardLimit - (travelCost + foodCost + stayCost);\r\n    }\r\n}\r\n",
  "sourcePath": "E:\\SEM7\\Truffle\\Prog1\\contracts\\creditLimit.sol",
  "compiler": {
    "name": "solc",
    "version": "0.8.17+commit.8df45f5f.Emscripten.clang"
  },
  "schemaVersion": "3.4.10",
  "updatedAt": "2022-11-01T10:08:53.749Z",
  "devdoc": {
    "kind": "dev",
    "methods": {},
    "version": 1
  },
  "userdoc": {
    "kind": "user",
    "methods": {},
    "version": 1
  }
}